:04000000FEEFFFF020
:1020000000AA2500000000202800122800AE2700AA
:10201000C8260000000000000000000000000000D2
:1020200000000000000000000000000000000000B0
:102030000000000000000000000000000034270045
:10204000122700F02600000000506C6561736520C7
:10205000656E7465722027412720746F2074757235
:102060006E206F6E20616E642027422720746F20DF
:102070007475726E206F66663A0D0A0025640D0A4B
:1020800000000E50D96EDA6A6F007FFFF6FF200E57
:10209000F76E000EF86E0800F550250AD8A453EF2D
:1020A00010F055EF10F015EF11F00E50D96EDA6AFE
:1020B000DF2A376A000E366E36C03CF03868396861
:1020C0000E50D96EDA6ADF50126E60004BF0F6FFE8
:1020D000200EF76E000EF86E0800F550640AD8B4B2
:1020E00074EF10F076EF10F087EF10F060004BF017
:1020F000F6FF200EF76E000EF86E0800F550690A24
:10210000D8A485EF10F087EF10F00FEF11F00F500B
:10211000D96EDA6A020EDF26DF5CD96EDA6A6F00EA
:1021200078FF13F06F0078FF14F00E50D96EDA6A62
:102130001228DF6E200E176E14BEA1EF10F0A4EF70
:1021400010F0010EA5EF10F0000E116E17061750DB
:10215000600FD96EDA6A13C001F014C002F0046A8D
:102160000A0E036EF8EC11F001C007F002C008F08F
:102170004AEC13F00750300FDF6E13C001F014C0AB
:1021800002F0046A0A0E036E98EC11F001C013F01D
:1021900002C014F013501410D8B4D1EF10F0D3EFE4
:1021A00010F0DBEF10F01750D8A4D9EF10F0DBEFF0
:1021B00010F0A6EF10F01750D8B4E1EF10F0E3EFF5
:1021C00010F004EF11F01150D8B4E9EF10F0EBEF7C
:1021D00010F004EF11F017061750600FD96EDA6A8D
:1021E0002D0EDF6E04EF11F01750600FD96EDA6A12
:1021F000DF50106E1050036E046A0CC005F00DC065
:1022000006F02CEC11F0172A200E1718D8A40BEFAB
:1022100011F00DEF11F0F4EF10F02BEF11F00E5064
:10222000D96EDA6ADF2A2BEF11F00E50D96EDA6A16
:102230006F007FFFF6FF200EF76E000EF86E0800AD
:10224000F550036E046A0CC005F00DC006F02CECCE
:1022500011F00FEF11F0120005500610D8B433EF53
:1022600011F035EF11F03EEF11F005500610D8A433
:102270003CEF11F03EEF11F043EF11F00350ABECE7
:1022800013F097EF11F020EE09F00550D926065013
:10229000DA22DE50DE10D8B450EF11F052EF11F018
:1022A0006DEF11F020EE09F00550D9260650DA2224
:1022B00010EE02F00550E1260650E222DE50E65C08
:1022C000E650800A0B6EDE50800A0B58D8B06BEFD8
:1022D00011F06DEF11F097EF11F020EE02F00550C4
:1022E000D9260650DA226F0078FF07F06F0074FFDE
:1022F00008F0600017F0D9FF60001BF0DAFF6F00F4
:1023000078FF09F06F0074FF0AF007500924D96EB6
:1023100008500A20DA6E60000FF0DFFF20EE02F0B6
:102320000550D9260650DA22DE2A000EDD221200E0
:10233000066A04BEA0EF11F09EEF11F0A6EF11F0B7
:10234000036C041ED8B0042A010E066E02BEADEF67
:1023500011F0ABEF11F0B3EF11F0016C021ED8B029
:10236000022A010E061A086A000E076E03500410B6
:10237000D8B4BDEF11F0BFEF11F0E7EF11F0010E8F
:10238000056EC7EF11F0D89003360436052A04AE67
:10239000CCEF11F0CEEF11F0C3EF11F0D89007366B
:1023A00008360350015C04500258D8A0DAEF11F04F
:1023B000DCEF11F0E1EF11F00350015E0450025A1E
:1023C0000780D89004320332052ECEEF11F006506C
:1023D000D8B4EDEF11F0EFEF11F0F3EF11F0076C5F
:1023E000081ED8B0082A07C001F008C002F0120089
:1023F000066A02BE00EF12F0FEEF11F006EF12F0D7
:10240000016C021ED8B0022A010E066E04BE0DEF4A
:1024100012F00BEF12F011EF12F0036C041ED8B0A3
:10242000042A03500410D8B418EF12F01AEF12F077
:102430003EEF12F0010E056E22EF12F0D890033637
:102440000436052A04AE27EF12F029EF12F01EEF32
:1024500012F00350015C04500258D8A032EF12F081
:1024600034EF12F038EF12F00350015E0450025ABC
:10247000D89004320332052E29EF12F00650D8B45A
:1024800044EF12F046EF12F04AEF12F0016C021E18
:10249000D8B0022A01C001F002C002F01200E2EC42
:1024A00013F0D5EC12F00DEC14F0D28E490E1D6E27
:1024B000CAEC13F0F40E226E820E216E050EE82E89
:1024C000FED7212EFCD7222EFAD70000D7EC13F02E
:1024D0000009D8B46EEF12F070EF12F056EF12F060
:1024E00010EC14F0236E7C0E1D6E23C01EF01F6ACC
:1024F000CAEC13F0410E2318D8A481EF12F083EF39
:1025000012F084EF12F0CB82420E2318D8A48BEF86
:1025100012F08DEF12F056EF12F0CB9256EF12F050
:10252000FEEFFFF0BA6ABB6ABC6ABD6ABE6A3A01D6
:10253000426B526B626B726B826BC268FD0EC36E34
:10254000C468FE0EC56E070EC66E4069FD0E506F64
:102550006069FC0E706F070E806F416B516B616B91
:10256000716B816B4369536963697369070E836F8C
:1025700044695469646974690F0E846F5A6B5B6BAC
:102580006A6B6B6B7A6B7B6B190EE86F160E186FAC
:10259000456B466B476B556B566B576B656B666B44
:1025A000676B856B866B876B12003D01D46BD66BB6
:1025B000D86BB00EDA6F800EDB6FDC6B820EDD6FD6
:1025C000060EDE6F2E0EDF6FE06B800EE16FE26BAA
:1025D000000E016E000E026E000E036E9AEC13F0F8
:1025E000000E016E000E026E000E036E89EC13F0F9
:1025F000000E016E000E026E000E036E78EC13F0FA
:102600003B6A000E3A6E12001AC01CF012EF13F073
:1026100018C00CF019C00DF01C0E0E6E1BC00FF090
:1026200041EC10F0600073F0F6FF200EF76E000E24
:10263000F86E0800F5500009D8A421EF13F023EF3D
:1026400013F008EF13F0196A000E186E1200D29AF8
:102650003901A191D280000E016E000E026E000EB3
:10266000036E02EC14F03901A591D282000E016EC6
:10267000000E026E000E036EFBEC13F03901A79BF7
:10268000D284000E016E000E026E000E036EF4EC9A
:1026900013F0120008BE4FEF13F051EF13F057EF95
:1026A00013F007C007F008C008F063EF13F007C08D
:1026B00009F008C00AF0091E0A1E094A0A2A09C0C0
:1026C00007F00AC008F01200016A3D01DFAB6BEFB2
:1026D00013F06DEF13F076EF13F0DAAB72EF13F047
:1026E00074EF13F076EF13F0010E016E015012003B
:1026F000015002100310D8B480EF13F082EF13F0F2
:1027000088EF13F001C024F002C025F003C026F0CA
:102710001200015002100310D8B491EF13F093EFA0
:1027200013F099EF13F001C027F002C028F003C0A6
:1027300029F01200015002100310D8B4A2EF13F0D8
:10274000A4EF13F0AAEF13F001C02AF002C02BF09F
:1027500003C02CF01200026E64EC13F00009D8B430
:10276000B4EF13F0B6EF13F0ACEF13F002C001F0CA
:1027700009EC14F0120000EE60F0200EEE6AE8069C
:10278000FDE100EE24F01D0EEE6AE806FDE1000119
:102790004FEF12F01E0E206E000E186E000E196E16
:1027A0001DC01AF0200E1B6E04EC13F012003D0148
:1027B000DFA3DDEF13F0E0EF13F0010EE1EF13F014
:1027C000000E1200EBEC13F092EC12F0D5EC12F0CC
:1027D00027EC13F01200600E3901D96FDB6BDD6B53
:1027E000080EDF6FDE6B120001C02DF002C02EF06C
:1027F00003C02FF0120001C030F002C031F003C05E
:1028000032F0120001C033F002C034F003C035F0E2
:102810001200600007F0D2FD12003D01DA891200BB
:062820003D01D051120041
:020000040001F9
:04FFFC00BBEF13F054
:020000040030CA
:0A0000008FFFF7FF9FFFFFFFFFFFD8
:00000001FF
